:100000004FC0C8C168C067C066C065C064C063C077
:1000100062C061C060C05FC05EC05DC05CC05BC0EC
:100020005AC059C058C004030904180373006C0077
:100030006100730068006400650076002E006300B4
:10004000610016035000530033005F00410072004E
:1000500063006100640065000A0331003000300075
:10006000300005010905A1010901A100093009318C
:10007000150026FF00750895028102C005091901C7
:10008000291015002501750195108102C01201018A
:100090000100000008C016DF050001010203010095
:1000A00011241FBECFE5D4E0DEBFCDBF10E0A0E637
:1000B000B0E0E2EEF9E002C005900D92AA39B10776
:1000C000D9F710E0AAE9B0E001C01D92A83EB1073F
:1000D000E1F721D384C494CF85B7836085BF8BB704
:1000E00080648BBF83EC8093BE0008950F931F93B1
:1000F000CF93DF939091CE0019160CF0AFC02091F2
:10010000CB008091CA008D3209F09EC08AE58093B1
:1001100061009B3009F098C0CCE0D0E0C21BD1094F
:10012000CE52DF4F8881807609F080C01092BC00EB
:100130008981882359F41092BD008CEB90E0909354
:10014000CD008093CC0030E822E077C0853021F4E8
:100150008A818093CF0068C0863009F04AC08B81C5
:10016000813009F441C0823019F4CE0176D260C0EA
:10017000833069F58A81882349F486E290E0909380
:10018000CD008093CC0030EC24E057C0813049F49E
:100190008AE290E09093CD008093CC0030EC28E18F
:1001A0004CC0823049F482E490E09093CD0080937B
:1001B000CC0030EC26E141C08330E9F588E590E0E1
:1001C0009093CD008093CC0030EC2CE036C081328F
:1001D00049F48DEA90E09093CD008093CC0030EC10
:1001E00029E02BC0823239F5CE0137D2282F30ECEE
:1001F00024C0883019F481ED90E00AC0893021F4E0
:100200008A818093D10010C08A3049F48CEB90E051
:100210009093CD008093CC0030E821E00EC08B306D
:1002200019F483EC8093BE0030E806C0CE0143D2BF
:10023000282F30E802C030EC20E08F81882339F489
:100240008E81821728F003C030E880E001C0822F41
:1002500030939A00809360001092CE0080916100EC
:1002600084FF49C0809160008F3F09F444C0182F7B
:10027000893008F018E0811B8093600080919A001B
:1002800080FD02C00BE401C003EC8F5F80939A00F5
:100290002091CC003091CD0086FD05C0D901912F71
:1002A000E4EBF0E011C0A4EBB0E080E090E006C029
:1002B000F901E80FF91FE491ED9301961817C1F7C2
:1002C00005C08D91819391509923D9F7F901E10FE0
:1002D000F11DF093CD00E093CC0084EB90E0612F12
:1002E00055D0183019F08FEF809360000093B30061
:1002F0001C5F109361009AE080B3857031F49150D7
:10030000D9F71092CF001092C900DF91CF911F91C1
:100310000F9108951F93DC01162F8091620084FFD6
:100320000AC08091BE0098E889278093BE00912F73
:10033000EFEBF0E007C08AE580936200F8CF8D9183
:10034000819391509923D9F78FEB90E0612F1ED0C4
:100350001C5F109362001F910895A82FB92F8FEF93
:100360009FEF41E050EA615070F02D9138E0722F1C
:10037000782796958795269570FF02C08427952744
:100380003A95A9F7F0CF809590950895E6DF8D9383
:100390009D930895CF93CFB7CF93809BFECF809B43
:1003A00009C0809B07C0809B05C0809B03C0809BC9
:1003B00001C09EC0DF93C091CB00DD27CE52DF4F3E
:1003C000809B02C0DF91EBCF2F930F931F9300B35D
:1003D0002FEF00FB20F94F933F9310B34FEF01270E
:1003E00000FB21F93BE031C04E7F012F10B32160AB
:1003F00028C0102F4D7F2260000000B329C04B7F22
:100400002460012F000010B32BC010B3477F286079
:100410002AC04F7E00B320612CC04F7D10B32062F4
:100420002FC04F7B00B3206432C0422700B34993F2
:100430004FEF0000102710FB20F910B31570A9F141
:10044000297F91F2012700FB21F900B3237F89F274
:100450003150F0F1102710FB22F910B3277E79F20A
:10046000012700FB23F92F7C81F200B3102710FB3A
:1004700024F92F7971F200C010B3012700FB25F990
:100480002F7359F200C000B3102710FB26F9223059
:1004900040F200C010B3012700FB27F9243028F6F2
:1004A0004F77206810B30000F9CF3B5031953330BF
:1004B00010E41ABFB8F0C31BD0400881033C41F1DF
:1004C0000B3431F11981412F1F772091C900121788
:1004D00031F4093691F10D3279F0013E69F02227AD
:1004E0002093D0003F914F911F910F912F91DF9159
:1004F000CF91CFBFCF9118950093D0003F914F91EE
:100500001F910F912F91DF91CAB7C6FD46CFF0CF53
:100510000091D000002331F31091CE001123A1F5FA
:100520003430A2F13093CE000093CA001091CB007A
:100530003BE0311B3093CB0029C00091CE0001304D
:100540001CF50AE547FD09C03091610034FD20C06B
:1005500000936100C3EBD0E01FC03091620034FD16
:1005600017C000936200CEEBD0E016C0052710E064
:1005700002BB1FC0052722C0052727C005272CC0A6
:10058000052710E002BB33C04AE503C042ED01C0BD
:10059000432FC4E1D0E032E011B31560909A02B36A
:1005A00011BB5F9355E020E820FF052702BB27958C
:1005B00017951C3FD8F620FF0527279502BB1795F6
:1005C0001C3FC0F620FF05272795179502BB1C3F4F
:1005D00098F620FF0527279517951C3F02BB70F65C
:1005E00000C0499120FF052702BB279517951C3FA6
:1005F00038F620FF0527279502BB17951C3F38F5D5
:1006000020FF05272795179502BB1C3F10F520FFFB
:100610000527279517951C3F02BBE8F4242F3A9530
:1006200019F60A7F5F9102BB00C01091CF00C6513E
:10063000D04011F01093C90010E41ABF016011B34B
:100640001A7F402F4A7F02BB11BB42BB4BCF05270D
:10065000D3CF0527D8CF0527DDCFFC018081807659
:1006600041F58181863029F583818230D1F0823253
:1006700069F08130F1F480919F009091A0009093F7
:10068000CD008093CC008091A100089580919C00C2
:1006900090919D009093CD008093CC0080919E001E
:1006A000089583E690E09093CD008093CC0082E2A1
:1006B000089580E00895FC0124EA30E03093CD00F5
:1006C0002093CC0080818076803219F58181813041
:1006D00079F4E091A200F091A3000088F189E02D67
:1006E000C9010995E091A200F091A30080810895CD
:1006F000823041F48AEA90E09093CD008093CC0060
:1007000081E008958A3029F483818093AA0080E0F3
:10071000089580E00895CF92DF92EF92FF920F93B9
:100720001F93B89A87B3897F87BB88B3866088BBDD
:10073000C09880E395E70197F1F786B303D1FC01F8
:100740009093A3008093A2008481958190939D0053
:1007500080939C00828180939E0080859185009784
:1007600031F09093A00080939F00868107C08DE8B0
:1007700090E09093A00080939F0021D18093A100EE
:1007800080919E0080937C0014BA8FEF85BB88EF28
:1007900082BB85E081BB11BA83BF8FE085BD84EC4D
:1007A00083BDE091A200F091A3000284F385E02DC7
:1007B000099592DC7894FF2401E010E0CC24C394E6
:1007C00090E8D92E04C0FF24F39400E01E2DA895D4
:1007D0008DDC002341F0E091A200F091A30004849D
:1007E000F585E02D099508B600FE0EC0C8BEE09064
:1007F000AA00EE2049F0153018F4FF24F39405C048
:100800008BEFE82EE10E01C0E12E08B607FE16C000
:10081000D8BEFF20A9F4E091A200F091A3000484C7
:10082000F585E02D0995E091A200F091A3000684E2
:10083000F785E02D0995882319F4C7CFFF2029F209
:100840008091620084FFBFCFE091A200F091A300ED
:100850000088F189E02D84EA90E00995E091A200FA
:10086000F091A30084EA90E0608154DDFF24ADCFD5
:1008700083B356B38095482F85FD03C020E830E050
:1008800002C020E030E044FF02C02FEF30E043FD23
:1008900003C080E890E002C080E090E042FF02C028
:1008A0008FEF90E08093AB002093AC001092AD00EE
:1008B0001092AE0041FF03C081E08093AD0040FF85
:1008C00005C08091AD0082608093AD005095952F5A
:1008D00055FF05C08091AD0084608093AD0094FF0A
:1008E00005C08091AD0088608093AD0093FF05C086
:1008F0008091AD0080618093AD0092FF05C0809132
:10090000AD0080628093AD0091FF03C081E08093D1
:10091000AE0090FF05C08091AE0082608093AE0073
:1009200008951F931FB7F89417BA88B38FEF88BB49
:1009300084B3807C84BB85B38F6385BB99DF1FBF85
:100940001F91089582E690E090938A008093890039
:1009500085E890E00895FC01009761F08091AB007C
:100960009091AC00A091AD00B091AE0080839183D6
:10097000A283B3838091AB009091AC00A091AD00B5
:10098000B091AE008093AF009093B000A093B100FF
:10099000B093B20008958091970090919800892BB0
:1009A00031F0109298001092970081E008958BEA40
:1009B00090E06FEA70E044E050E004D0089582E1F6
:1009C00090E00895FB01DC0104C08D910190801935
:1009D00021F441505040C8F7881B990B0895F894B2
:0209E000FFCF47
:1009E200FF5A5A0902220001010080320904000064
:1009F2000103000000092101010001220000070596
:100A0200810308000A04002B00000000000000918E
:0A0A1200043804CB04AB040100001B
:00000001FF
